{
  "contractName": "TutorialToken",
  "abi": [
    {
      "inputs": [],
      "stateMutability": "nonpayable",
      "type": "constructor"
    },
    {
      "anonymous": false,
      "inputs": [
        {
          "indexed": true,
          "internalType": "address",
          "name": "owner",
          "type": "address"
        },
        {
          "indexed": true,
          "internalType": "address",
          "name": "spender",
          "type": "address"
        },
        {
          "indexed": false,
          "internalType": "uint256",
          "name": "value",
          "type": "uint256"
        }
      ],
      "name": "Approval",
      "type": "event"
    },
    {
      "anonymous": false,
      "inputs": [
        {
          "indexed": true,
          "internalType": "bytes32",
          "name": "role",
          "type": "bytes32"
        },
        {
          "indexed": true,
          "internalType": "bytes32",
          "name": "previousAdminRole",
          "type": "bytes32"
        },
        {
          "indexed": true,
          "internalType": "bytes32",
          "name": "newAdminRole",
          "type": "bytes32"
        }
      ],
      "name": "RoleAdminChanged",
      "type": "event"
    },
    {
      "anonymous": false,
      "inputs": [
        {
          "indexed": true,
          "internalType": "bytes32",
          "name": "role",
          "type": "bytes32"
        },
        {
          "indexed": true,
          "internalType": "address",
          "name": "account",
          "type": "address"
        },
        {
          "indexed": true,
          "internalType": "address",
          "name": "sender",
          "type": "address"
        }
      ],
      "name": "RoleGranted",
      "type": "event"
    },
    {
      "anonymous": false,
      "inputs": [
        {
          "indexed": true,
          "internalType": "bytes32",
          "name": "role",
          "type": "bytes32"
        },
        {
          "indexed": true,
          "internalType": "address",
          "name": "account",
          "type": "address"
        },
        {
          "indexed": true,
          "internalType": "address",
          "name": "sender",
          "type": "address"
        }
      ],
      "name": "RoleRevoked",
      "type": "event"
    },
    {
      "anonymous": false,
      "inputs": [
        {
          "indexed": true,
          "internalType": "address",
          "name": "from",
          "type": "address"
        },
        {
          "indexed": true,
          "internalType": "address",
          "name": "to",
          "type": "address"
        },
        {
          "indexed": false,
          "internalType": "uint256",
          "name": "value",
          "type": "uint256"
        }
      ],
      "name": "Transfer",
      "type": "event"
    },
    {
      "inputs": [],
      "name": "BURNER_ROLE",
      "outputs": [
        {
          "internalType": "bytes32",
          "name": "",
          "type": "bytes32"
        }
      ],
      "stateMutability": "view",
      "type": "function",
      "constant": true
    },
    {
      "inputs": [],
      "name": "DEFAULT_ADMIN_ROLE",
      "outputs": [
        {
          "internalType": "bytes32",
          "name": "",
          "type": "bytes32"
        }
      ],
      "stateMutability": "view",
      "type": "function",
      "constant": true
    },
    {
      "inputs": [],
      "name": "MINTER_ROLE",
      "outputs": [
        {
          "internalType": "bytes32",
          "name": "",
          "type": "bytes32"
        }
      ],
      "stateMutability": "view",
      "type": "function",
      "constant": true
    },
    {
      "inputs": [
        {
          "internalType": "address",
          "name": "owner",
          "type": "address"
        },
        {
          "internalType": "address",
          "name": "spender",
          "type": "address"
        }
      ],
      "name": "allowance",
      "outputs": [
        {
          "internalType": "uint256",
          "name": "",
          "type": "uint256"
        }
      ],
      "stateMutability": "view",
      "type": "function",
      "constant": true
    },
    {
      "inputs": [
        {
          "internalType": "address",
          "name": "spender",
          "type": "address"
        },
        {
          "internalType": "uint256",
          "name": "amount",
          "type": "uint256"
        }
      ],
      "name": "approve",
      "outputs": [
        {
          "internalType": "bool",
          "name": "",
          "type": "bool"
        }
      ],
      "stateMutability": "nonpayable",
      "type": "function"
    },
    {
      "inputs": [
        {
          "internalType": "address",
          "name": "account",
          "type": "address"
        }
      ],
      "name": "balanceOf",
      "outputs": [
        {
          "internalType": "uint256",
          "name": "",
          "type": "uint256"
        }
      ],
      "stateMutability": "view",
      "type": "function",
      "constant": true
    },
    {
      "inputs": [],
      "name": "decimals",
      "outputs": [
        {
          "internalType": "uint8",
          "name": "",
          "type": "uint8"
        }
      ],
      "stateMutability": "view",
      "type": "function",
      "constant": true
    },
    {
      "inputs": [
        {
          "internalType": "address",
          "name": "spender",
          "type": "address"
        },
        {
          "internalType": "uint256",
          "name": "subtractedValue",
          "type": "uint256"
        }
      ],
      "name": "decreaseAllowance",
      "outputs": [
        {
          "internalType": "bool",
          "name": "",
          "type": "bool"
        }
      ],
      "stateMutability": "nonpayable",
      "type": "function"
    },
    {
      "inputs": [
        {
          "internalType": "bytes32",
          "name": "role",
          "type": "bytes32"
        }
      ],
      "name": "getRoleAdmin",
      "outputs": [
        {
          "internalType": "bytes32",
          "name": "",
          "type": "bytes32"
        }
      ],
      "stateMutability": "view",
      "type": "function",
      "constant": true
    },
    {
      "inputs": [
        {
          "internalType": "bytes32",
          "name": "role",
          "type": "bytes32"
        },
        {
          "internalType": "uint256",
          "name": "index",
          "type": "uint256"
        }
      ],
      "name": "getRoleMember",
      "outputs": [
        {
          "internalType": "address",
          "name": "",
          "type": "address"
        }
      ],
      "stateMutability": "view",
      "type": "function",
      "constant": true
    },
    {
      "inputs": [
        {
          "internalType": "bytes32",
          "name": "role",
          "type": "bytes32"
        }
      ],
      "name": "getRoleMemberCount",
      "outputs": [
        {
          "internalType": "uint256",
          "name": "",
          "type": "uint256"
        }
      ],
      "stateMutability": "view",
      "type": "function",
      "constant": true
    },
    {
      "inputs": [
        {
          "internalType": "bytes32",
          "name": "role",
          "type": "bytes32"
        },
        {
          "internalType": "address",
          "name": "account",
          "type": "address"
        }
      ],
      "name": "grantRole",
      "outputs": [],
      "stateMutability": "nonpayable",
      "type": "function"
    },
    {
      "inputs": [
        {
          "internalType": "bytes32",
          "name": "role",
          "type": "bytes32"
        },
        {
          "internalType": "address",
          "name": "account",
          "type": "address"
        }
      ],
      "name": "hasRole",
      "outputs": [
        {
          "internalType": "bool",
          "name": "",
          "type": "bool"
        }
      ],
      "stateMutability": "view",
      "type": "function",
      "constant": true
    },
    {
      "inputs": [
        {
          "internalType": "address",
          "name": "spender",
          "type": "address"
        },
        {
          "internalType": "uint256",
          "name": "addedValue",
          "type": "uint256"
        }
      ],
      "name": "increaseAllowance",
      "outputs": [
        {
          "internalType": "bool",
          "name": "",
          "type": "bool"
        }
      ],
      "stateMutability": "nonpayable",
      "type": "function"
    },
    {
      "inputs": [],
      "name": "name",
      "outputs": [
        {
          "internalType": "string",
          "name": "",
          "type": "string"
        }
      ],
      "stateMutability": "view",
      "type": "function",
      "constant": true
    },
    {
      "inputs": [
        {
          "internalType": "bytes32",
          "name": "role",
          "type": "bytes32"
        },
        {
          "internalType": "address",
          "name": "account",
          "type": "address"
        }
      ],
      "name": "renounceRole",
      "outputs": [],
      "stateMutability": "nonpayable",
      "type": "function"
    },
    {
      "inputs": [
        {
          "internalType": "bytes32",
          "name": "role",
          "type": "bytes32"
        },
        {
          "internalType": "address",
          "name": "account",
          "type": "address"
        }
      ],
      "name": "revokeRole",
      "outputs": [],
      "stateMutability": "nonpayable",
      "type": "function"
    },
    {
      "inputs": [],
      "name": "symbol",
      "outputs": [
        {
          "internalType": "string",
          "name": "",
          "type": "string"
        }
      ],
      "stateMutability": "view",
      "type": "function",
      "constant": true
    },
    {
      "inputs": [],
      "name": "totalSupply",
      "outputs": [
        {
          "internalType": "uint256",
          "name": "",
          "type": "uint256"
        }
      ],
      "stateMutability": "view",
      "type": "function",
      "constant": true
    },
    {
      "inputs": [
        {
          "internalType": "address",
          "name": "recipient",
          "type": "address"
        },
        {
          "internalType": "uint256",
          "name": "amount",
          "type": "uint256"
        }
      ],
      "name": "transfer",
      "outputs": [
        {
          "internalType": "bool",
          "name": "",
          "type": "bool"
        }
      ],
      "stateMutability": "nonpayable",
      "type": "function"
    },
    {
      "inputs": [
        {
          "internalType": "address",
          "name": "sender",
          "type": "address"
        },
        {
          "internalType": "address",
          "name": "recipient",
          "type": "address"
        },
        {
          "internalType": "uint256",
          "name": "amount",
          "type": "uint256"
        }
      ],
      "name": "transferFrom",
      "outputs": [
        {
          "internalType": "bool",
          "name": "",
          "type": "bool"
        }
      ],
      "stateMutability": "nonpayable",
      "type": "function"
    },
    {
      "inputs": [
        {
          "internalType": "address",
          "name": "to",
          "type": "address"
        },
        {
          "internalType": "uint256",
          "name": "amount",
          "type": "uint256"
        }
      ],
      "name": "mint",
      "outputs": [],
      "stateMutability": "nonpayable",
      "type": "function"
    },
    {
      "inputs": [
        {
          "internalType": "address",
          "name": "from",
          "type": "address"
        },
        {
          "internalType": "uint256",
          "name": "amount",
          "type": "uint256"
        }
      ],
      "name": "burn",
      "outputs": [],
      "stateMutability": "nonpayable",
      "type": "function"
    },
    {
      "inputs": [
        {
          "internalType": "address",
          "name": "account",
          "type": "address"
        }
      ],
      "name": "grantMinterRole",
      "outputs": [],
      "stateMutability": "nonpayable",
      "type": "function"
    },
    {
      "inputs": [
        {
          "internalType": "address",
          "name": "account",
          "type": "address"
        }
      ],
      "name": "grantBurnerRole",
      "outputs": [],
      "stateMutability": "nonpayable",
      "type": "function"
    }
  ],
  "bytecode": "0x60806040523480156200001157600080fd5b506040518060400160405280600781526020017f4d79546f6b656e000000000000000000000000000000000000000000000000008152506040518060400160405280600381526020017f544b4e000000000000000000000000000000000000000000000000000000000081525081600390805190602001906200009692919062000280565b508060049080519060200190620000af92919062000280565b506012600560006101000a81548160ff021916908360ff1602179055505050620000e36000801b33620000e960201b60201c565b6200032f565b620000fb8282620000ff60201b60201c565b5050565b6200012e8160066000858152602001908152602001600020600001620001a360201b62001f3f1790919060201c565b156200019f5762000144620001db60201b60201c565b73ffffffffffffffffffffffffffffffffffffffff168173ffffffffffffffffffffffffffffffffffffffff16837f2f8788117e7eff1d82e926ec794901d17c78024a50270940304540a733656f0d60405160405180910390a45b5050565b6000620001d3836000018373ffffffffffffffffffffffffffffffffffffffff1660001b620001e360201b60201c565b905092915050565b600033905090565b6000620001f783836200025d60201b60201c565b6200025257826000018290806001815401808255809150506001900390600052602060002001600090919091909150558260000180549050836001016000848152602001908152602001600020819055506001905062000257565b600090505b92915050565b600080836001016000848152602001908152602001600020541415905092915050565b828054600181600116156101000203166002900490600052602060002090601f016020900481019282601f10620002c357805160ff1916838001178555620002f4565b82800160010185558215620002f4579182015b82811115620002f3578251825591602001919060010190620002d6565b5b50905062000303919062000307565b5090565b6200032c91905b80821115620003285760008160009055506001016200030e565b5090565b90565b612422806200033f6000396000f3fe608060405234801561001057600080fd5b50600436106101735760003560e01c806370a08231116100de578063a457c2d711610097578063d539139311610071578063d539139314610850578063d547741f1461086e578063d98d23b1146108bc578063dd62ed3e1461090057610173565b8063a457c2d714610742578063a9059cbb146107a8578063ca15c8731461080e57610173565b806370a082311461051d5780639010d07c1461057557806391d14854146105ed57806395d89b41146106535780639dc29fac146106d6578063a217fddf1461072457610173565b80632f2ff15d116101305780632f2ff15d14610365578063313ce567146103b357806336568abe146103d757806339509351146104255780633dd1eb611461048b57806340c10f19146104cf57610173565b806306fdde0314610178578063095ea7b3146101fb57806318160ddd1461026157806323b872dd1461027f578063248a9ca314610305578063282c51f314610347575b600080fd5b610180610978565b6040518080602001828103825283818151815260200191508051906020019080838360005b838110156101c05780820151818401526020810190506101a5565b50505050905090810190601f1680156101ed5780820380516001836020036101000a031916815260200191505b509250505060405180910390f35b6102476004803603604081101561021157600080fd5b81019080803573ffffffffffffffffffffffffffffffffffffffff16906020019092919080359060200190929190505050610a1a565b604051808215151515815260200191505060405180910390f35b610269610a38565b6040518082815260200191505060405180910390f35b6102eb6004803603606081101561029557600080fd5b81019080803573ffffffffffffffffffffffffffffffffffffffff169060200190929190803573ffffffffffffffffffffffffffffffffffffffff16906020019092919080359060200190929190505050610a42565b604051808215151515815260200191505060405180910390f35b6103316004803603602081101561031b57600080fd5b8101908080359060200190929190505050610b1b565b6040518082815260200191505060405180910390f35b61034f610b3b565b6040518082815260200191505060405180910390f35b6103b16004803603604081101561037b57600080fd5b8101908080359060200190929190803573ffffffffffffffffffffffffffffffffffffffff169060200190929190505050610b74565b005b6103bb610bfe565b604051808260ff1660ff16815260200191505060405180910390f35b610423600480360360408110156103ed57600080fd5b8101908080359060200190929190803573ffffffffffffffffffffffffffffffffffffffff169060200190929190505050610c15565b005b6104716004803603604081101561043b57600080fd5b81019080803573ffffffffffffffffffffffffffffffffffffffff16906020019092919080359060200190929190505050610cae565b604051808215151515815260200191505060405180910390f35b6104cd600480360360208110156104a157600080fd5b81019080803573ffffffffffffffffffffffffffffffffffffffff169060200190929190505050610d61565b005b61051b600480360360408110156104e557600080fd5b81019080803573ffffffffffffffffffffffffffffffffffffffff16906020019092919080359060200190929190505050610e22565b005b61055f6004803603602081101561053357600080fd5b81019080803573ffffffffffffffffffffffffffffffffffffffff169060200190929190505050610ee1565b6040518082815260200191505060405180910390f35b6105ab6004803603604081101561058b57600080fd5b810190808035906020019092919080359060200190929190505050610f29565b604051808273ffffffffffffffffffffffffffffffffffffffff1673ffffffffffffffffffffffffffffffffffffffff16815260200191505060405180910390f35b6106396004803603604081101561060357600080fd5b8101908080359060200190929190803573ffffffffffffffffffffffffffffffffffffffff169060200190929190505050610f5b565b604051808215151515815260200191505060405180910390f35b61065b610f8d565b6040518080602001828103825283818151815260200191508051906020019080838360005b8381101561069b578082015181840152602081019050610680565b50505050905090810190601f1680156106c85780820380516001836020036101000a031916815260200191505b509250505060405180910390f35b610722600480360360408110156106ec57600080fd5b81019080803573ffffffffffffffffffffffffffffffffffffffff1690602001909291908035906020019092919050505061102f565b005b61072c6110ee565b6040518082815260200191505060405180910390f35b61078e6004803603604081101561075857600080fd5b81019080803573ffffffffffffffffffffffffffffffffffffffff169060200190929190803590602001909291905050506110f5565b604051808215151515815260200191505060405180910390f35b6107f4600480360360408110156107be57600080fd5b81019080803573ffffffffffffffffffffffffffffffffffffffff169060200190929190803590602001909291905050506111c2565b604051808215151515815260200191505060405180910390f35b61083a6004803603602081101561082457600080fd5b81019080803590602001909291905050506111e0565b6040518082815260200191505060405180910390f35b610858611207565b6040518082815260200191505060405180910390f35b6108ba6004803603604081101561088457600080fd5b8101908080359060200190929190803573ffffffffffffffffffffffffffffffffffffffff169060200190929190505050611240565b005b6108fe600480360360208110156108d257600080fd5b81019080803573ffffffffffffffffffffffffffffffffffffffff1690602001909291905050506112ca565b005b6109626004803603604081101561091657600080fd5b81019080803573ffffffffffffffffffffffffffffffffffffffff169060200190929190803573ffffffffffffffffffffffffffffffffffffffff16906020019092919050505061138b565b6040518082815260200191505060405180910390f35b606060038054600181600116156101000203166002900480601f016020809104026020016040519081016040528092919081815260200182805460018160011615610100020316600290048015610a105780601f106109e557610100808354040283529160200191610a10565b820191906000526020600020905b8154815290600101906020018083116109f357829003601f168201915b5050505050905090565b6000610a2e610a27611412565b848461141a565b6001905092915050565b6000600254905090565b6000610a4f848484611611565b610b1084610a5b611412565b610b0b8560405180606001604052806028815260200161230760289139600160008b73ffffffffffffffffffffffffffffffffffffffff1673ffffffffffffffffffffffffffffffffffffffff1681526020019081526020016000206000610ac1611412565b73ffffffffffffffffffffffffffffffffffffffff1673ffffffffffffffffffffffffffffffffffffffff168152602001908152602001600020546118d29092919063ffffffff16565b61141a565b600190509392505050565b600060066000838152602001908152602001600020600201549050919050565b60405180807f4255524e45525f524f4c45000000000000000000000000000000000000000000815250600b019050604051809103902081565b610b9b6006600084815260200190815260200160002060020154610b96611412565b610f5b565b610bf0576040517f08c379a000000000000000000000000000000000000000000000000000000000815260040180806020018281038252602f81526020018061223e602f913960400191505060405180910390fd5b610bfa8282611992565b5050565b6000600560009054906101000a900460ff16905090565b610c1d611412565b73ffffffffffffffffffffffffffffffffffffffff168173ffffffffffffffffffffffffffffffffffffffff1614610ca0576040517f08c379a000000000000000000000000000000000000000000000000000000000815260040180806020018281038252602f8152602001806123be602f913960400191505060405180910390fd5b610caa8282611a26565b5050565b6000610d57610cbb611412565b84610d528560016000610ccc611412565b73ffffffffffffffffffffffffffffffffffffffff1673ffffffffffffffffffffffffffffffffffffffff16815260200190815260200160002060008973ffffffffffffffffffffffffffffffffffffffff1673ffffffffffffffffffffffffffffffffffffffff16815260200190815260200160002054611aba90919063ffffffff16565b61141a565b6001905092915050565b610d6e6000801b33610f5b565b610de0576040517f08c379a00000000000000000000000000000000000000000000000000000000081526004018080602001828103825260198152602001807f4f6e6c792061646d696e2063616e206772616e7420726f6c650000000000000081525060200191505060405180910390fd5b610e1f60405180807f4d494e5445525f524f4c45000000000000000000000000000000000000000000815250600b019050604051809103902082611b42565b50565b610e6160405180807f4d494e5445525f524f4c45000000000000000000000000000000000000000000815250600b019050604051809103902033610f5b565b610ed3576040517f08c379a00000000000000000000000000000000000000000000000000000000081526004018080602001828103825260168152602001807f43616c6c6572206973206e6f742061206d696e7465720000000000000000000081525060200191505060405180910390fd5b610edd8282611b50565b5050565b60008060008373ffffffffffffffffffffffffffffffffffffffff1673ffffffffffffffffffffffffffffffffffffffff168152602001908152602001600020549050919050565b6000610f538260066000868152602001908152602001600020600001611d1790919063ffffffff16565b905092915050565b6000610f858260066000868152602001908152602001600020600001611d3190919063ffffffff16565b905092915050565b606060048054600181600116156101000203166002900480601f0160208091040260200160405190810160405280929190818152602001828054600181600116156101000203166002900480156110255780601f10610ffa57610100808354040283529160200191611025565b820191906000526020600020905b81548152906001019060200180831161100857829003601f168201915b5050505050905090565b61106e60405180807f4255524e45525f524f4c45000000000000000000000000000000000000000000815250600b019050604051809103902033610f5b565b6110e0576040517f08c379a00000000000000000000000000000000000000000000000000000000081526004018080602001828103825260168152602001807f43616c6c6572206973206e6f742061206275726e65720000000000000000000081525060200191505060405180910390fd5b6110ea8282611d61565b5050565b6000801b81565b60006111b8611102611412565b846111b385604051806060016040528060258152602001612399602591396001600061112c611412565b73ffffffffffffffffffffffffffffffffffffffff1673ffffffffffffffffffffffffffffffffffffffff16815260200190815260200160002060008a73ffffffffffffffffffffffffffffffffffffffff1673ffffffffffffffffffffffffffffffffffffffff168152602001908152602001600020546118d29092919063ffffffff16565b61141a565b6001905092915050565b60006111d66111cf611412565b8484611611565b6001905092915050565b600061120060066000848152602001908152602001600020600001611f25565b9050919050565b60405180807f4d494e5445525f524f4c45000000000000000000000000000000000000000000815250600b019050604051809103902081565b6112676006600084815260200190815260200160002060020154611262611412565b610f5b565b6112bc576040517f08c379a00000000000000000000000000000000000000000000000000000000081526004018080602001828103825260308152602001806122d76030913960400191505060405180910390fd5b6112c68282611a26565b5050565b6112d76000801b33610f5b565b611349576040517f08c379a00000000000000000000000000000000000000000000000000000000081526004018080602001828103825260198152602001807f4f6e6c792061646d696e2063616e206772616e7420726f6c650000000000000081525060200191505060405180910390fd5b61138860405180807f4255524e45525f524f4c45000000000000000000000000000000000000000000815250600b019050604051809103902082611b42565b50565b6000600160008473ffffffffffffffffffffffffffffffffffffffff1673ffffffffffffffffffffffffffffffffffffffff16815260200190815260200160002060008373ffffffffffffffffffffffffffffffffffffffff1673ffffffffffffffffffffffffffffffffffffffff16815260200190815260200160002054905092915050565b600033905090565b600073ffffffffffffffffffffffffffffffffffffffff168373ffffffffffffffffffffffffffffffffffffffff1614156114a0576040517f08c379a00000000000000000000000000000000000000000000000000000000081526004018080602001828103825260248152602001806123756024913960400191505060405180910390fd5b600073ffffffffffffffffffffffffffffffffffffffff168273ffffffffffffffffffffffffffffffffffffffff161415611526576040517f08c379a000000000000000000000000000000000000000000000000000000000815260040180806020018281038252602281526020018061228f6022913960400191505060405180910390fd5b80600160008573ffffffffffffffffffffffffffffffffffffffff1673ffffffffffffffffffffffffffffffffffffffff16815260200190815260200160002060008473ffffffffffffffffffffffffffffffffffffffff1673ffffffffffffffffffffffffffffffffffffffff168152602001908152602001600020819055508173ffffffffffffffffffffffffffffffffffffffff168373ffffffffffffffffffffffffffffffffffffffff167f8c5be1e5ebec7d5bd14f71427d1e84f3dd0314c0f7b2291e5b200ac8c7c3b925836040518082815260200191505060405180910390a3505050565b600073ffffffffffffffffffffffffffffffffffffffff168373ffffffffffffffffffffffffffffffffffffffff161415611697576040517f08c379a00000000000000000000000000000000000000000000000000000000081526004018080602001828103825260258152602001806123506025913960400191505060405180910390fd5b600073ffffffffffffffffffffffffffffffffffffffff168273ffffffffffffffffffffffffffffffffffffffff16141561171d576040517f08c379a000000000000000000000000000000000000000000000000000000000815260040180806020018281038252602381526020018061221b6023913960400191505060405180910390fd5b611728838383611f3a565b611793816040518060600160405280602681526020016122b1602691396000808773ffffffffffffffffffffffffffffffffffffffff1673ffffffffffffffffffffffffffffffffffffffff168152602001908152602001600020546118d29092919063ffffffff16565b6000808573ffffffffffffffffffffffffffffffffffffffff1673ffffffffffffffffffffffffffffffffffffffff16815260200190815260200160002081905550611826816000808573ffffffffffffffffffffffffffffffffffffffff1673ffffffffffffffffffffffffffffffffffffffff16815260200190815260200160002054611aba90919063ffffffff16565b6000808473ffffffffffffffffffffffffffffffffffffffff1673ffffffffffffffffffffffffffffffffffffffff168152602001908152602001600020819055508173ffffffffffffffffffffffffffffffffffffffff168373ffffffffffffffffffffffffffffffffffffffff167fddf252ad1be2c89b69c2b068fc378daa952ba7f163c4a11628f55a4df523b3ef836040518082815260200191505060405180910390a3505050565b600083831115829061197f576040517f08c379a00000000000000000000000000000000000000000000000000000000081526004018080602001828103825283818151815260200191508051906020019080838360005b83811015611944578082015181840152602081019050611929565b50505050905090810190601f1680156119715780820380516001836020036101000a031916815260200191505b509250505060405180910390fd5b5060008385039050809150509392505050565b6119ba8160066000858152602001908152602001600020600001611f3f90919063ffffffff16565b15611a22576119c7611412565b73ffffffffffffffffffffffffffffffffffffffff168173ffffffffffffffffffffffffffffffffffffffff16837f2f8788117e7eff1d82e926ec794901d17c78024a50270940304540a733656f0d60405160405180910390a45b5050565b611a4e8160066000858152602001908152602001600020600001611f6f90919063ffffffff16565b15611ab657611a5b611412565b73ffffffffffffffffffffffffffffffffffffffff168173ffffffffffffffffffffffffffffffffffffffff16837ff6391f5c32d9c69d2a47ea670b442974b53935d1edc7fd64eb21e047a839171b60405160405180910390a45b5050565b600080828401905083811015611b38576040517f08c379a000000000000000000000000000000000000000000000000000000000815260040180806020018281038252601b8152602001807f536166654d6174683a206164646974696f6e206f766572666c6f77000000000081525060200191505060405180910390fd5b8091505092915050565b611b4c8282611992565b5050565b600073ffffffffffffffffffffffffffffffffffffffff168273ffffffffffffffffffffffffffffffffffffffff161415611bf3576040517f08c379a000000000000000000000000000000000000000000000000000000000815260040180806020018281038252601f8152602001807f45524332303a206d696e7420746f20746865207a65726f20616464726573730081525060200191505060405180910390fd5b611bff60008383611f3a565b611c1481600254611aba90919063ffffffff16565b600281905550611c6b816000808573ffffffffffffffffffffffffffffffffffffffff1673ffffffffffffffffffffffffffffffffffffffff16815260200190815260200160002054611aba90919063ffffffff16565b6000808473ffffffffffffffffffffffffffffffffffffffff1673ffffffffffffffffffffffffffffffffffffffff168152602001908152602001600020819055508173ffffffffffffffffffffffffffffffffffffffff16600073ffffffffffffffffffffffffffffffffffffffff167fddf252ad1be2c89b69c2b068fc378daa952ba7f163c4a11628f55a4df523b3ef836040518082815260200191505060405180910390a35050565b6000611d268360000183611f9f565b60001c905092915050565b6000611d59836000018373ffffffffffffffffffffffffffffffffffffffff1660001b612022565b905092915050565b600073ffffffffffffffffffffffffffffffffffffffff168273ffffffffffffffffffffffffffffffffffffffff161415611de7576040517f08c379a000000000000000000000000000000000000000000000000000000000815260040180806020018281038252602181526020018061232f6021913960400191505060405180910390fd5b611df382600083611f3a565b611e5e8160405180606001604052806022815260200161226d602291396000808673ffffffffffffffffffffffffffffffffffffffff1673ffffffffffffffffffffffffffffffffffffffff168152602001908152602001600020546118d29092919063ffffffff16565b6000808473ffffffffffffffffffffffffffffffffffffffff1673ffffffffffffffffffffffffffffffffffffffff16815260200190815260200160002081905550611eb58160025461204590919063ffffffff16565b600281905550600073ffffffffffffffffffffffffffffffffffffffff168273ffffffffffffffffffffffffffffffffffffffff167fddf252ad1be2c89b69c2b068fc378daa952ba7f163c4a11628f55a4df523b3ef836040518082815260200191505060405180910390a35050565b6000611f338260000161208f565b9050919050565b505050565b6000611f67836000018373ffffffffffffffffffffffffffffffffffffffff1660001b6120a0565b905092915050565b6000611f97836000018373ffffffffffffffffffffffffffffffffffffffff1660001b612110565b905092915050565b600081836000018054905011612000576040517f08c379a00000000000000000000000000000000000000000000000000000000081526004018080602001828103825260228152602001806121f96022913960400191505060405180910390fd5b82600001828154811061200f57fe5b9060005260206000200154905092915050565b600080836001016000848152602001908152602001600020541415905092915050565b600061208783836040518060400160405280601e81526020017f536166654d6174683a207375627472616374696f6e206f766572666c6f7700008152506118d2565b905092915050565b600081600001805490509050919050565b60006120ac8383612022565b61210557826000018290806001815401808255809150506001900390600052602060002001600090919091909150558260000180549050836001016000848152602001908152602001600020819055506001905061210a565b600090505b92915050565b600080836001016000848152602001908152602001600020549050600081146121ec576000600182039050600060018660000180549050039050600086600001828154811061215b57fe5b906000526020600020015490508087600001848154811061217857fe5b90600052602060002001819055506001830187600101600083815260200190815260200160002081905550866000018054806121b057fe5b600190038181906000526020600020016000905590558660010160008781526020019081526020016000206000905560019450505050506121f2565b60009150505b9291505056fe456e756d657261626c655365743a20696e646578206f7574206f6620626f756e647345524332303a207472616e7366657220746f20746865207a65726f2061646472657373416363657373436f6e74726f6c3a2073656e646572206d75737420626520616e2061646d696e20746f206772616e7445524332303a206275726e20616d6f756e7420657863656564732062616c616e636545524332303a20617070726f766520746f20746865207a65726f206164647265737345524332303a207472616e7366657220616d6f756e7420657863656564732062616c616e6365416363657373436f6e74726f6c3a2073656e646572206d75737420626520616e2061646d696e20746f207265766f6b6545524332303a207472616e7366657220616d6f756e74206578636565647320616c6c6f77616e636545524332303a206275726e2066726f6d20746865207a65726f206164647265737345524332303a207472616e736665722066726f6d20746865207a65726f206164647265737345524332303a20617070726f76652066726f6d20746865207a65726f206164647265737345524332303a2064656372656173656420616c6c6f77616e63652062656c6f77207a65726f416363657373436f6e74726f6c3a2063616e206f6e6c792072656e6f756e636520726f6c657320666f722073656c66a2646970667358221220c33f3d5eb73545c0df586bc02077586710301d267a70c62a153954dfadad528864736f6c63430006020033",
  "source": "//pragma solidity >= 0.4.24 <= 0.7.0;\npragma solidity ^0.6.0;\n\nimport \"@openzeppelin/contracts/token/ERC20/ERC20.sol\";\nimport \"@openzeppelin/contracts/access/AccessControl.sol\";\n\n//https://docs.openzeppelin.com/contracts/3.x/erc20\n\ncontract TutorialToken is ERC20, AccessControl {\n//  uint INITIAL_SUPPLY = 12000;\n\n bytes32 public constant MINTER_ROLE = keccak256(\"MINTER_ROLE\");\n bytes32 public constant BURNER_ROLE = keccak256(\"BURNER_ROLE\");\n\n  constructor() public ERC20(\"MyToken\", \"TKN\") {\n      // Grant the minter role to a specified account\n      _setupRole(DEFAULT_ADMIN_ROLE, msg.sender);\n  }\n\n  function mint(address to, uint256 amount) public {\n    // Check that the calling account has the minter role\n    require(hasRole(MINTER_ROLE, msg.sender), \"Caller is not a minter\");\n    _mint(to, amount);\n  }\n    \n  function burn(address from, uint256 amount) public {\n    require(hasRole(BURNER_ROLE, msg.sender), \"Caller is not a burner\");\n    _burn(from, amount);\n  }\n\n  // al pedo\n  function grantMinterRole(address account) public {\n    require(hasRole(DEFAULT_ADMIN_ROLE, msg.sender), \"Only admin can grant role\");\n    _setupRole(MINTER_ROLE, account);\n  }\n\n  //al pedo\n  function grantBurnerRole(address account) public {\n    require(hasRole(DEFAULT_ADMIN_ROLE, msg.sender), \"Only admin can grant role\");\n    _setupRole(BURNER_ROLE, account);\n  }\n  //constructor() public ERC20(\"Gold\", \"GLD\"){\n  //  _mint(msg.sender, INITIAL_SUPPLY);\n  //  _setupDecimals(2);\n  //}\n  //function _mintMinerReward() public{\n  //  mint(msg.sender, 1000);\n  //}\n  //function _beforeTokenTransfer(address from, address to, uint256 value) internal virtual override {\n  //  _mintMinerReward();\n  //  super._beforeTokenTransfer(from, to, value);\n  //}\n}\n",
  "sourcePath": "/home/joaquin/dapp_practice/tutorial-token/contracts/TutorialToken.sol",
  "compiler": {
    "name": "solc",
    "version": "0.6.2+commit.bacdbe57.Emscripten.clang"
  },
  "schemaVersion": "3.2.5",
  "updatedAt": "2020-10-20T16:55:06.322Z",
  "networkType": "ethereum",
  "devdoc": {
    "methods": {
      "allowance(address,address)": {
        "details": "See {IERC20-allowance}."
      },
      "approve(address,uint256)": {
        "details": "See {IERC20-approve}.     * Requirements:     * - `spender` cannot be the zero address."
      },
      "balanceOf(address)": {
        "details": "See {IERC20-balanceOf}."
      },
      "decimals()": {
        "details": "Returns the number of decimals used to get its user representation. For example, if `decimals` equals `2`, a balance of `505` tokens should be displayed to a user as `5,05` (`505 / 10 ** 2`).     * Tokens usually opt for a value of 18, imitating the relationship between Ether and Wei. This is the value {ERC20} uses, unless {_setupDecimals} is called.     * NOTE: This information is only used for _display_ purposes: it in no way affects any of the arithmetic of the contract, including {IERC20-balanceOf} and {IERC20-transfer}."
      },
      "decreaseAllowance(address,uint256)": {
        "details": "Atomically decreases the allowance granted to `spender` by the caller.     * This is an alternative to {approve} that can be used as a mitigation for problems described in {IERC20-approve}.     * Emits an {Approval} event indicating the updated allowance.     * Requirements:     * - `spender` cannot be the zero address. - `spender` must have allowance for the caller of at least `subtractedValue`."
      },
      "getRoleAdmin(bytes32)": {
        "details": "Returns the admin role that controls `role`. See {grantRole} and {revokeRole}.     * To change a role's admin, use {_setRoleAdmin}."
      },
      "getRoleMember(bytes32,uint256)": {
        "details": "Returns one of the accounts that have `role`. `index` must be a value between 0 and {getRoleMemberCount}, non-inclusive.     * Role bearers are not sorted in any particular way, and their ordering may change at any point.     * WARNING: When using {getRoleMember} and {getRoleMemberCount}, make sure you perform all queries on the same block. See the following https://forum.openzeppelin.com/t/iterating-over-elements-on-enumerableset-in-openzeppelin-contracts/2296[forum post] for more information."
      },
      "getRoleMemberCount(bytes32)": {
        "details": "Returns the number of accounts that have `role`. Can be used together with {getRoleMember} to enumerate all bearers of a role."
      },
      "grantRole(bytes32,address)": {
        "details": "Grants `role` to `account`.     * If `account` had not been already granted `role`, emits a {RoleGranted} event.     * Requirements:     * - the caller must have ``role``'s admin role."
      },
      "hasRole(bytes32,address)": {
        "details": "Returns `true` if `account` has been granted `role`."
      },
      "increaseAllowance(address,uint256)": {
        "details": "Atomically increases the allowance granted to `spender` by the caller.     * This is an alternative to {approve} that can be used as a mitigation for problems described in {IERC20-approve}.     * Emits an {Approval} event indicating the updated allowance.     * Requirements:     * - `spender` cannot be the zero address."
      },
      "name()": {
        "details": "Returns the name of the token."
      },
      "renounceRole(bytes32,address)": {
        "details": "Revokes `role` from the calling account.     * Roles are often managed via {grantRole} and {revokeRole}: this function's purpose is to provide a mechanism for accounts to lose their privileges if they are compromised (such as when a trusted device is misplaced).     * If the calling account had been granted `role`, emits a {RoleRevoked} event.     * Requirements:     * - the caller must be `account`."
      },
      "revokeRole(bytes32,address)": {
        "details": "Revokes `role` from `account`.     * If `account` had been granted `role`, emits a {RoleRevoked} event.     * Requirements:     * - the caller must have ``role``'s admin role."
      },
      "symbol()": {
        "details": "Returns the symbol of the token, usually a shorter version of the name."
      },
      "totalSupply()": {
        "details": "See {IERC20-totalSupply}."
      },
      "transfer(address,uint256)": {
        "details": "See {IERC20-transfer}.     * Requirements:     * - `recipient` cannot be the zero address. - the caller must have a balance of at least `amount`."
      },
      "transferFrom(address,address,uint256)": {
        "details": "See {IERC20-transferFrom}.     * Emits an {Approval} event indicating the updated allowance. This is not required by the EIP. See the note at the beginning of {ERC20};     * Requirements: - `sender` and `recipient` cannot be the zero address. - `sender` must have a balance of at least `amount`. - the caller must have allowance for ``sender``'s tokens of at least `amount`."
      }
    }
  },
  "userdoc": {
    "methods": {}
  }
}